{
  "contractName": "vehicle",
  "abi": [
    {
      "inputs": [],
      "payable": false,
      "stateMutability": "nonpayable",
      "type": "constructor"
    },
    {
      "constant": false,
      "inputs": [
        {
          "internalType": "address",
          "name": "_vowner",
          "type": "address"
        },
        {
          "internalType": "string",
          "name": "_vtype",
          "type": "string"
        },
        {
          "internalType": "string",
          "name": "_vnumber",
          "type": "string"
        },
        {
          "internalType": "string",
          "name": "_vemail",
          "type": "string"
        },
        {
          "internalType": "string",
          "name": "_vaddress",
          "type": "string"
        },
        {
          "internalType": "string",
          "name": "_vchassis",
          "type": "string"
        },
        {
          "internalType": "string",
          "name": "_vownername",
          "type": "string"
        }
      ],
      "name": "addVehicle",
      "outputs": [],
      "payable": false,
      "stateMutability": "nonpayable",
      "type": "function"
    },
    {
      "constant": true,
      "inputs": [],
      "name": "viewVehicles",
      "outputs": [
        {
          "internalType": "address[]",
          "name": "",
          "type": "address[]"
        },
        {
          "internalType": "string[]",
          "name": "",
          "type": "string[]"
        },
        {
          "internalType": "string[]",
          "name": "",
          "type": "string[]"
        },
        {
          "internalType": "string[]",
          "name": "",
          "type": "string[]"
        },
        {
          "internalType": "string[]",
          "name": "",
          "type": "string[]"
        },
        {
          "internalType": "string[]",
          "name": "",
          "type": "string[]"
        },
        {
          "internalType": "string[]",
          "name": "",
          "type": "string[]"
        }
      ],
      "payable": false,
      "stateMutability": "view",
      "type": "function"
    }
  ],
  "bytecode": "0x608060405234801561001057600080fd5b5033600860006101000a81548173ffffffffffffffffffffffffffffffffffffffff021916908373ffffffffffffffffffffffffffffffffffffffff160217905550610f9f806100616000396000f3fe608060405234801561001057600080fd5b50600436106100365760003560e01c8063b415af8d1461003b578063e0dd8cfe14610057575b600080fd5b61005560048036036100509190810190610a66565b61007b565b005b61005f6102f4565b6040516100729796959493929190610d23565b60405180910390f35b600860009054906101000a900473ffffffffffffffffffffffffffffffffffffffff1673ffffffffffffffffffffffffffffffffffffffff163373ffffffffffffffffffffffffffffffffffffffff16146100d557600080fd5b6007856040516100e59190610d0c565b908152602001604051809103902060009054906101000a900460ff161561010b57600080fd5b60008790806001815401808255809150509060018203906000526020600020016000909192909190916101000a81548173ffffffffffffffffffffffffffffffffffffffff021916908373ffffffffffffffffffffffffffffffffffffffff1602179055505060018690806001815401808255809150509060018203906000526020600020016000909192909190915090805190602001906101ae929190610958565b505060028590806001815401808255809150509060018203906000526020600020016000909192909190915090805190602001906101ed929190610958565b5050600384908060018154018082558091505090600182039060005260206000200160009091929091909150908051906020019061022c929190610958565b5050600483908060018154018082558091505090600182039060005260206000200160009091929091909150908051906020019061026b929190610958565b505060058290806001815401808255809150509060018203906000526020600020016000909192909190915090805190602001906102aa929190610958565b505060068190806001815401808255809150509060018203906000526020600020016000909192909190915090805190602001906102e9929190610958565b505050505050505050565b6060806060806060806060600860009054906101000a900473ffffffffffffffffffffffffffffffffffffffff1673ffffffffffffffffffffffffffffffffffffffff163373ffffffffffffffffffffffffffffffffffffffff161461035957600080fd5b6000600160026003600460056006868054806020026020016040519081016040528092919081815260200182805480156103e857602002820191906000526020600020905b8160009054906101000a900473ffffffffffffffffffffffffffffffffffffffff1673ffffffffffffffffffffffffffffffffffffffff168152602001906001019080831161039e575b5050505050965085805480602002602001604051908101604052809291908181526020016000905b828210156104cc578382906000526020600020018054600181600116156101000203166002900480601f0160208091040260200160405190810160405280929190818152602001828054600181600116156101000203166002900480156104b85780601f1061048d576101008083540402835291602001916104b8565b820191906000526020600020905b81548152906001019060200180831161049b57829003601f168201915b505050505081526020019060010190610410565b50505050955084805480602002602001604051908101604052809291908181526020016000905b828210156105af578382906000526020600020018054600181600116156101000203166002900480601f01602080910402602001604051908101604052809291908181526020018280546001816001161561010002031660029004801561059b5780601f106105705761010080835404028352916020019161059b565b820191906000526020600020905b81548152906001019060200180831161057e57829003601f168201915b5050505050815260200190600101906104f3565b50505050945083805480602002602001604051908101604052809291908181526020016000905b82821015610692578382906000526020600020018054600181600116156101000203166002900480601f01602080910402602001604051908101604052809291908181526020018280546001816001161561010002031660029004801561067e5780601f106106535761010080835404028352916020019161067e565b820191906000526020600020905b81548152906001019060200180831161066157829003601f168201915b5050505050815260200190600101906105d6565b50505050935082805480602002602001604051908101604052809291908181526020016000905b82821015610775578382906000526020600020018054600181600116156101000203166002900480601f0160208091040260200160405190810160405280929190818152602001828054600181600116156101000203166002900480156107615780601f1061073657610100808354040283529160200191610761565b820191906000526020600020905b81548152906001019060200180831161074457829003601f168201915b5050505050815260200190600101906106b9565b50505050925081805480602002602001604051908101604052809291908181526020016000905b82821015610858578382906000526020600020018054600181600116156101000203166002900480601f0160208091040260200160405190810160405280929190818152602001828054600181600116156101000203166002900480156108445780601f1061081957610100808354040283529160200191610844565b820191906000526020600020905b81548152906001019060200180831161082757829003601f168201915b50505050508152602001906001019061079c565b50505050915080805480602002602001604051908101604052809291908181526020016000905b8282101561093b578382906000526020600020018054600181600116156101000203166002900480601f0160208091040260200160405190810160405280929190818152602001828054600181600116156101000203166002900480156109275780601f106108fc57610100808354040283529160200191610927565b820191906000526020600020905b81548152906001019060200180831161090a57829003601f168201915b50505050508152602001906001019061087f565b505050509050965096509650965096509650965090919293949596565b828054600181600116156101000203166002900490600052602060002090601f016020900481019282601f1061099957805160ff19168380011785556109c7565b828001600101855582156109c7579182015b828111156109c65782518255916020019190600101906109ab565b5b5090506109d491906109d8565b5090565b6109fa91905b808211156109f65760008160009055506001016109de565b5090565b90565b600081359050610a0c81610f45565b92915050565b600082601f830112610a2357600080fd5b8135610a36610a3182610df0565b610dc3565b91508082526020830160208301858383011115610a5257600080fd5b610a5d838284610ef2565b50505092915050565b600080600080600080600060e0888a031215610a8157600080fd5b6000610a8f8a828b016109fd565b975050602088013567ffffffffffffffff811115610aac57600080fd5b610ab88a828b01610a12565b965050604088013567ffffffffffffffff811115610ad557600080fd5b610ae18a828b01610a12565b955050606088013567ffffffffffffffff811115610afe57600080fd5b610b0a8a828b01610a12565b945050608088013567ffffffffffffffff811115610b2757600080fd5b610b338a828b01610a12565b93505060a088013567ffffffffffffffff811115610b5057600080fd5b610b5c8a828b01610a12565b92505060c088013567ffffffffffffffff811115610b7957600080fd5b610b858a828b01610a12565b91505092959891949750929550565b6000610ba08383610bc0565b60208301905092915050565b6000610bb88383610cd3565b905092915050565b610bc981610ec0565b82525050565b6000610bda82610e3c565b610be48185610e82565b9350610bef83610e1c565b8060005b83811015610c20578151610c078882610b94565b9750610c1283610e68565b925050600181019050610bf3565b5085935050505092915050565b6000610c3882610e47565b610c428185610e93565b935083602082028501610c5485610e2c565b8060005b85811015610c905784840389528151610c718582610bac565b9450610c7c83610e75565b925060208a01995050600181019050610c58565b50829750879550505050505092915050565b6000610cad82610e5d565b610cb78185610eb5565b9350610cc7818560208601610f01565b80840191505092915050565b6000610cde82610e52565b610ce88185610ea4565b9350610cf8818560208601610f01565b610d0181610f34565b840191505092915050565b6000610d188284610ca2565b915081905092915050565b600060e0820190508181036000830152610d3d818a610bcf565b90508181036020830152610d518189610c2d565b90508181036040830152610d658188610c2d565b90508181036060830152610d798187610c2d565b90508181036080830152610d8d8186610c2d565b905081810360a0830152610da18185610c2d565b905081810360c0830152610db58184610c2d565b905098975050505050505050565b6000604051905081810181811067ffffffffffffffff82111715610de657600080fd5b8060405250919050565b600067ffffffffffffffff821115610e0757600080fd5b601f19601f8301169050602081019050919050565b6000819050602082019050919050565b6000819050602082019050919050565b600081519050919050565b600081519050919050565b600081519050919050565b600081519050919050565b6000602082019050919050565b6000602082019050919050565b600082825260208201905092915050565b600082825260208201905092915050565b600082825260208201905092915050565b600081905092915050565b6000610ecb82610ed2565b9050919050565b600073ffffffffffffffffffffffffffffffffffffffff82169050919050565b82818337600083830152505050565b60005b83811015610f1f578082015181840152602081019050610f04565b83811115610f2e576000848401525b50505050565b6000601f19601f8301169050919050565b610f4e81610ec0565b8114610f5957600080fd5b5056fea365627a7a723158208c72da3792846afd95bb018592830ae728ad0b90bdff0957b2b6271997a0e3096c6578706572696d656e74616cf564736f6c63430005100040",
  "source": "// SPDX-License-Identifier: MIT\npragma experimental ABIEncoderV2;\npragma solidity >=0.4.22 <0.9.0;\n\ncontract vehicle {\n\n  address[] vOwners;\n  string[] vTypes;\n  string[] vNumbers;\n  string[] vEmails;\n  string[] vAddresses;\n  string[] vChassisnos;\n  string[] vOwnernames;\n\n  mapping(string=>bool) regList;\n\n  address admin;\n  constructor() public{\n    admin=msg.sender;\n  }\n\n  modifier onlyAdmin() {\n    require(msg.sender==admin);\n    _;\n  }\n\n  function addVehicle(address _vowner, string memory _vtype, string memory _vnumber, string memory _vemail, string memory _vaddress, string memory _vchassis, string memory _vownername) public onlyAdmin {\n\n    require(!regList[_vnumber]);\n\n    vOwners.push(_vowner);\n    vTypes.push(_vtype);\n    vNumbers.push(_vnumber);\n    vEmails.push(_vemail);\n    vAddresses.push(_vaddress);\n    vChassisnos.push(_vchassis);\n    vOwnernames.push(_vownername);\n  }\n\n  function viewVehicles() public view onlyAdmin returns (address[] memory, string[] memory, string[] memory, string[] memory, string[] memory, string[] memory, string[] memory) {\n\n    return(vOwners,vTypes,vNumbers,vEmails,vAddresses,vChassisnos,vOwnernames);\n  }\n}\n",
  "sourcePath": "/Users/maddysravs/decentralized-vehicle-registration/contracts/vehicle.sol",
  "compiler": {
    "name": "solc",
    "version": "0.5.16+commit.9c3226ce.Emscripten.clang"
  },
  "schemaVersion": "3.4.7",
  "updatedAt": "2022-06-22T10:20:09.419Z",
  "networkType": "ethereum",
  "devdoc": {
    "methods": {}
  },
  "userdoc": {
    "methods": {}
  }
}